{
  "contracts/restaurants.sol": {
    "Restaurants": {
      "abi": [
        {
          "inputs": [],
          "stateMutability": "nonpayable",
          "type": "constructor"
        },
        {
          "anonymous": false,
          "inputs": [
            {
              "indexed": false,
              "internalType": "bool",
              "name": "success",
              "type": "bool"
            },
            {
              "indexed": false,
              "internalType": "uint256",
              "name": "id",
              "type": "uint256"
            }
          ],
          "name": "BookingCreated",
          "type": "event"
        },
        {
          "anonymous": false,
          "inputs": [
            {
              "indexed": false,
              "internalType": "bool",
              "name": "success",
              "type": "bool"
            }
          ],
          "name": "DeletedBooking",
          "type": "event"
        },
        {
          "anonymous": false,
          "inputs": [
            {
              "indexed": false,
              "internalType": "uint256[]",
              "name": "",
              "type": "uint256[]"
            }
          ],
          "name": "GotBookings",
          "type": "event"
        },
        {
          "anonymous": false,
          "inputs": [
            {
              "indexed": false,
              "internalType": "bool",
              "name": "success",
              "type": "bool"
            },
            {
              "indexed": false,
              "internalType": "uint256",
              "name": "id",
              "type": "uint256"
            }
          ],
          "name": "RestaurantCreated",
          "type": "event"
        },
        {
          "anonymous": false,
          "inputs": [
            {
              "components": [
                {
                  "internalType": "uint256",
                  "name": "id",
                  "type": "uint256"
                },
                {
                  "internalType": "uint256",
                  "name": "numberOfGuests",
                  "type": "uint256"
                },
                {
                  "internalType": "string",
                  "name": "name",
                  "type": "string"
                },
                {
                  "internalType": "string",
                  "name": "date",
                  "type": "string"
                },
                {
                  "internalType": "uint256",
                  "name": "time",
                  "type": "uint256"
                },
                {
                  "internalType": "uint256",
                  "name": "restaurantId",
                  "type": "uint256"
                }
              ],
              "indexed": false,
              "internalType": "struct Restaurants.Booking",
              "name": "booking",
              "type": "tuple"
            }
          ],
          "name": "UpdatedBooking",
          "type": "event"
        },
        {
          "inputs": [],
          "name": "bookingCount",
          "outputs": [
            {
              "internalType": "uint256",
              "name": "",
              "type": "uint256"
            }
          ],
          "stateMutability": "view",
          "type": "function"
        },
        {
          "inputs": [
            {
              "internalType": "uint256",
              "name": "",
              "type": "uint256"
            }
          ],
          "name": "bookings",
          "outputs": [
            {
              "internalType": "uint256",
              "name": "id",
              "type": "uint256"
            },
            {
              "internalType": "uint256",
              "name": "numberOfGuests",
              "type": "uint256"
            },
            {
              "internalType": "string",
              "name": "name",
              "type": "string"
            },
            {
              "internalType": "string",
              "name": "date",
              "type": "string"
            },
            {
              "internalType": "uint256",
              "name": "time",
              "type": "uint256"
            },
            {
              "internalType": "uint256",
              "name": "restaurantId",
              "type": "uint256"
            }
          ],
          "stateMutability": "view",
          "type": "function"
        },
        {
          "inputs": [
            {
              "internalType": "uint256",
              "name": "numberOfGuests",
              "type": "uint256"
            },
            {
              "internalType": "string",
              "name": "name",
              "type": "string"
            },
            {
              "internalType": "string",
              "name": "date",
              "type": "string"
            },
            {
              "internalType": "uint256",
              "name": "time",
              "type": "uint256"
            },
            {
              "internalType": "uint256",
              "name": "restaurantId",
              "type": "uint256"
            }
          ],
          "name": "createBooking",
          "outputs": [],
          "stateMutability": "nonpayable",
          "type": "function"
        },
        {
          "inputs": [
            {
              "internalType": "string",
              "name": "name",
              "type": "string"
            }
          ],
          "name": "createRestaurant",
          "outputs": [],
          "stateMutability": "nonpayable",
          "type": "function"
        },
        {
          "inputs": [
            {
              "internalType": "uint256",
              "name": "id",
              "type": "uint256"
            },
            {
              "internalType": "uint256",
              "name": "numberOfGuests",
              "type": "uint256"
            },
            {
              "internalType": "string",
              "name": "name",
              "type": "string"
            },
            {
              "internalType": "string",
              "name": "date",
              "type": "string"
            },
            {
              "internalType": "uint256",
              "name": "time",
              "type": "uint256"
            }
          ],
          "name": "editBooking",
          "outputs": [],
          "stateMutability": "nonpayable",
          "type": "function"
        },
        {
          "inputs": [
            {
              "internalType": "uint256",
              "name": "id",
              "type": "uint256"
            }
          ],
          "name": "getBookings",
          "outputs": [
            {
              "internalType": "uint256[]",
              "name": "",
              "type": "uint256[]"
            }
          ],
          "stateMutability": "view",
          "type": "function"
        },
        {
          "inputs": [
            {
              "internalType": "uint256",
              "name": "id",
              "type": "uint256"
            }
          ],
          "name": "removeBooking",
          "outputs": [],
          "stateMutability": "nonpayable",
          "type": "function"
        },
        {
          "inputs": [],
          "name": "restaurantCount",
          "outputs": [
            {
              "internalType": "uint256",
              "name": "",
              "type": "uint256"
            }
          ],
          "stateMutability": "view",
          "type": "function"
        },
        {
          "inputs": [
            {
              "internalType": "uint256",
              "name": "",
              "type": "uint256"
            }
          ],
          "name": "restaurants",
          "outputs": [
            {
              "internalType": "uint256",
              "name": "id",
              "type": "uint256"
            },
            {
              "internalType": "string",
              "name": "name",
              "type": "string"
            }
          ],
          "stateMutability": "view",
          "type": "function"
        }
      ],
      "evm": {
        "bytecode": {
          "linkReferences": {},
          "object": "60806040526000600255600060035534801561001a57600080fd5b506115758061002a6000396000f3fe608060405234801561001057600080fd5b50600436106100935760003560e01c8063ad5461d811610066578063ad5461d814610123578063b11b91e614610154578063d4b0b11614610172578063d8f3e9e61461018e578063f4010995146101aa57610093565b806317c1f549146100985780631dab301e146100b457806364725ca5146100e95780636d75917214610105575b600080fd5b6100b260048036038101906100ad91906109d7565b6101da565b005b6100ce60048036038101906100c991906109d7565b6103a1565b6040516100e096959493929190610aa3565b60405180910390f35b61010360048036038101906100fe9190610c47565b6104ed565b005b61010d610579565b60405161011a9190610cfa565b60405180910390f35b61013d600480360381019061013891906109d7565b61057f565b60405161014b929190610d15565b60405180910390f35b61015c61062b565b6040516101699190610cfa565b60405180910390f35b61018c60048036038101906101879190610d45565b610631565b005b6101a860048036038101906101a39190610d8e565b610742565b005b6101c460048036038101906101bf91906109d7565b610876565b6040516101d19190610eff565b60405180910390f35b600060016000838152602001908152602001600020600501549050600080600083815260200190815260200160002090506000805b826002018054905081101561025c578483600201828154811061023557610234610f21565b5b906000526020600020015403610249578091505b808061025490610f7f565b91505061020f565b5060008190505b600183600201805490506102779190610fc7565b8110156102e2578260020160018261028f9190610ffb565b815481106102a05761029f610f21565b5b90600052602060002001548360020182815481106102c1576102c0610f21565b5b906000526020600020018190555080806102da90610f7f565b915050610263565b50816002018054806102f7576102f661102f565b5b6001900381819060005260206000200160009055905560016000858152602001908152602001600020600080820160009055600182016000905560028201600061034191906108e3565b60038201600061035191906108e3565b6004820160009055600582016000905550507f5dcacf1b737bf142a9057e3365018e63d7441ea69194a76bd8ff034f63f8520360016040516103939190611079565b60405180910390a150505050565b60016020528060005260406000206000915090508060000154908060010154908060020180546103d0906110c3565b80601f01602080910402602001604051908101604052809291908181526020018280546103fc906110c3565b80156104495780601f1061041e57610100808354040283529160200191610449565b820191906000526020600020905b81548152906001019060200180831161042c57829003601f168201915b50505050509080600301805461045e906110c3565b80601f016020809104026020016040519081016040528092919081815260200182805461048a906110c3565b80156104d75780601f106104ac576101008083540402835291602001916104d7565b820191906000526020600020905b8154815290600101906020018083116104ba57829003601f168201915b5050505050908060040154908060050154905086565b60006001600087815260200190815260200160002090508381600201908161051591906112a0565b508481600101819055508181600401819055508281600301908161053991906112a0565b507f5a77bbe572433b2c0e924f2f75bf51216fa851f9c01f8a634197cf26f3a6d3258160405161056991906114f4565b60405180910390a1505050505050565b60035481565b60006020528060005260406000206000915090508060000154908060010180546105a8906110c3565b80601f01602080910402602001604051908101604052809291908181526020018280546105d4906110c3565b80156106215780601f106105f657610100808354040283529160200191610621565b820191906000526020600020905b81548152906001019060200180831161060457829003601f168201915b5050505050905082565b60025481565b6002600081548092919061064490610f7f565b919050555060405180606001604052806002548152602001828152602001600067ffffffffffffffff81111561067d5761067c610b1c565b5b6040519080825280602002602001820160405280156106ab5781602001602082028036833780820191505090505b5081525060008060025481526020019081526020016000206000820151816000015560208201518160010190816106e291906112a0565b5060408201518160020190805190602001906106ff929190610923565b509050507fb44d9bd7081f5c7671700a97bc6cba1e3a60eb4cecaabdb370ac10b57ba7e9d46001600254604051610737929190611516565b60405180910390a150565b6003600081548092919061075590610f7f565b91905055506040518060c00160405280600354815260200186815260200185815260200184815260200183815260200182815250600160006003548152602001908152602001600020600082015181600001556020820151816001015560408201518160020190816107c791906112a0565b5060608201518160030190816107dd91906112a0565b506080820151816004015560a0820151816005015590505060008082815260200190815260200160002060020160035490806001815401808255809150506001900390600052602060002001600090919091909150557fe7d5dfaec753fc9012f5bc793b639cb633db0c781574d2831ea2466933d4d9b66001600354604051610867929190611516565b60405180910390a15050505050565b60606000808381526020019081526020016000206002018054806020026020016040519081016040528092919081815260200182805480156108d757602002820191906000526020600020905b8154815260200190600101908083116108c3575b50505050509050919050565b5080546108ef906110c3565b6000825580601f106109015750610920565b601f01602090049060005260206000209081019061091f9190610970565b5b50565b82805482825590600052602060002090810192821561095f579160200282015b8281111561095e578251825591602001919060010190610943565b5b50905061096c9190610970565b5090565b5b80821115610989576000816000905550600101610971565b5090565b6000604051905090565b600080fd5b600080fd5b6000819050919050565b6109b4816109a1565b81146109bf57600080fd5b50565b6000813590506109d1816109ab565b92915050565b6000602082840312156109ed576109ec610997565b5b60006109fb848285016109c2565b91505092915050565b610a0d816109a1565b82525050565b600081519050919050565b600082825260208201905092915050565b60005b83811015610a4d578082015181840152602081019050610a32565b60008484015250505050565b6000601f19601f8301169050919050565b6000610a7582610a13565b610a7f8185610a1e565b9350610a8f818560208601610a2f565b610a9881610a59565b840191505092915050565b600060c082019050610ab86000830189610a04565b610ac56020830188610a04565b8181036040830152610ad78187610a6a565b90508181036060830152610aeb8186610a6a565b9050610afa6080830185610a04565b610b0760a0830184610a04565b979650505050505050565b600080fd5b600080fd5b7f4e487b7100000000000000000000000000000000000000000000000000000000600052604160045260246000fd5b610b5482610a59565b810181811067ffffffffffffffff82111715610b7357610b72610b1c565b5b80604052505050565b6000610b8661098d565b9050610b928282610b4b565b919050565b600067ffffffffffffffff821115610bb257610bb1610b1c565b5b610bbb82610a59565b9050602081019050919050565b82818337600083830152505050565b6000610bea610be584610b97565b610b7c565b905082815260208101848484011115610c0657610c05610b17565b5b610c11848285610bc8565b509392505050565b600082601f830112610c2e57610c2d610b12565b5b8135610c3e848260208601610bd7565b91505092915050565b600080600080600060a08688031215610c6357610c62610997565b5b6000610c71888289016109c2565b9550506020610c82888289016109c2565b945050604086013567ffffffffffffffff811115610ca357610ca261099c565b5b610caf88828901610c19565b935050606086013567ffffffffffffffff811115610cd057610ccf61099c565b5b610cdc88828901610c19565b9250506080610ced888289016109c2565b9150509295509295909350565b6000602082019050610d0f6000830184610a04565b92915050565b6000604082019050610d2a6000830185610a04565b8181036020830152610d3c8184610a6a565b90509392505050565b600060208284031215610d5b57610d5a610997565b5b600082013567ffffffffffffffff811115610d7957610d7861099c565b5b610d8584828501610c19565b91505092915050565b600080600080600060a08688031215610daa57610da9610997565b5b6000610db8888289016109c2565b955050602086013567ffffffffffffffff811115610dd957610dd861099c565b5b610de588828901610c19565b945050604086013567ffffffffffffffff811115610e0657610e0561099c565b5b610e1288828901610c19565b9350506060610e23888289016109c2565b9250506080610e34888289016109c2565b9150509295509295909350565b600081519050919050565b600082825260208201905092915050565b6000819050602082019050919050565b610e76816109a1565b82525050565b6000610e888383610e6d565b60208301905092915050565b6000602082019050919050565b6000610eac82610e41565b610eb68185610e4c565b9350610ec183610e5d565b8060005b83811015610ef2578151610ed98882610e7c565b9750610ee483610e94565b925050600181019050610ec5565b5085935050505092915050565b60006020820190508181036000830152610f198184610ea1565b905092915050565b7f4e487b7100000000000000000000000000000000000000000000000000000000600052603260045260246000fd5b7f4e487b7100000000000000000000000000000000000000000000000000000000600052601160045260246000fd5b6000610f8a826109a1565b91507fffffffffffffffffffffffffffffffffffffffffffffffffffffffffffffffff8203610fbc57610fbb610f50565b5b600182019050919050565b6000610fd2826109a1565b9150610fdd836109a1565b9250828203905081811115610ff557610ff4610f50565b5b92915050565b6000611006826109a1565b9150611011836109a1565b925082820190508082111561102957611028610f50565b5b92915050565b7f4e487b7100000000000000000000000000000000000000000000000000000000600052603160045260246000fd5b60008115159050919050565b6110738161105e565b82525050565b600060208201905061108e600083018461106a565b92915050565b7f4e487b7100000000000000000000000000000000000000000000000000000000600052602260045260246000fd5b600060028204905060018216806110db57607f821691505b6020821081036110ee576110ed611094565b5b50919050565b60008190508160005260206000209050919050565b60006020601f8301049050919050565b600082821b905092915050565b6000600883026111567fffffffffffffffffffffffffffffffffffffffffffffffffffffffffffffffff82611119565b6111608683611119565b95508019841693508086168417925050509392505050565b6000819050919050565b600061119d611198611193846109a1565b611178565b6109a1565b9050919050565b6000819050919050565b6111b783611182565b6111cb6111c3826111a4565b848454611126565b825550505050565b600090565b6111e06111d3565b6111eb8184846111ae565b505050565b5b8181101561120f576112046000826111d8565b6001810190506111f1565b5050565b601f82111561125457611225816110f4565b61122e84611109565b8101602085101561123d578190505b61125161124985611109565b8301826111f0565b50505b505050565b600082821c905092915050565b600061127760001984600802611259565b1980831691505092915050565b60006112908383611266565b9150826002028217905092915050565b6112a982610a13565b67ffffffffffffffff8111156112c2576112c1610b1c565b5b6112cc82546110c3565b6112d7828285611213565b600060209050601f83116001811461130a57600084156112f8578287015190505b6113028582611284565b86555061136a565b601f198416611318866110f4565b60005b828110156113405784890151825560018201915060208501945060208101905061131b565b8683101561135d5784890151611359601f891682611266565b8355505b6001600288020188555050505b505050505050565b60008160001c9050919050565b6000819050919050565b600061139c61139783611372565b61137f565b9050919050565b600082825260208201905092915050565b600081546113c1816110c3565b6113cb81866113a3565b945060018216600081146113e657600181146113fc5761142f565b60ff19831686528115156020028601935061142f565b611405856110f4565b60005b8381101561142757815481890152600182019150602081019050611408565b808801955050505b50505092915050565b600060c08301600080840154905061144f81611389565b61145c6000870182610e6d565b506001840154905061146d81611389565b61147a6020870182610e6d565b5060028401858303604087015261149183826113b4565b9250506003840185830360608701526114aa83826113b4565b925050600484015490506114bd81611389565b6114ca6080870182610e6d565b50600584015490506114db81611389565b6114e860a0870182610e6d565b50819250505092915050565b6000602082019050818103600083015261150e8184611438565b905092915050565b600060408201905061152b600083018561106a565b6115386020830184610a04565b939250505056fea26469706673582212205140d105e8aca652ba29ebe429ac5bf8aff7daecf357918a9cf41acb0427e59064736f6c63430008110033",
          "opcodes": "PUSH1 0x80 PUSH1 0x40 MSTORE PUSH1 0x0 PUSH1 0x2 SSTORE PUSH1 0x0 PUSH1 0x3 SSTORE CALLVALUE DUP1 ISZERO PUSH2 0x1A JUMPI PUSH1 0x0 DUP1 REVERT JUMPDEST POP PUSH2 0x1575 DUP1 PUSH2 0x2A PUSH1 0x0 CODECOPY PUSH1 0x0 RETURN INVALID PUSH1 0x80 PUSH1 0x40 MSTORE CALLVALUE DUP1 ISZERO PUSH2 0x10 JUMPI PUSH1 0x0 DUP1 REVERT JUMPDEST POP PUSH1 0x4 CALLDATASIZE LT PUSH2 0x93 JUMPI PUSH1 0x0 CALLDATALOAD PUSH1 0xE0 SHR DUP1 PUSH4 0xAD5461D8 GT PUSH2 0x66 JUMPI DUP1 PUSH4 0xAD5461D8 EQ PUSH2 0x123 JUMPI DUP1 PUSH4 0xB11B91E6 EQ PUSH2 0x154 JUMPI DUP1 PUSH4 0xD4B0B116 EQ PUSH2 0x172 JUMPI DUP1 PUSH4 0xD8F3E9E6 EQ PUSH2 0x18E JUMPI DUP1 PUSH4 0xF4010995 EQ PUSH2 0x1AA JUMPI PUSH2 0x93 JUMP JUMPDEST DUP1 PUSH4 0x17C1F549 EQ PUSH2 0x98 JUMPI DUP1 PUSH4 0x1DAB301E EQ PUSH2 0xB4 JUMPI DUP1 PUSH4 0x64725CA5 EQ PUSH2 0xE9 JUMPI DUP1 PUSH4 0x6D759172 EQ PUSH2 0x105 JUMPI JUMPDEST PUSH1 0x0 DUP1 REVERT JUMPDEST PUSH2 0xB2 PUSH1 0x4 DUP1 CALLDATASIZE SUB DUP2 ADD SWAP1 PUSH2 0xAD SWAP2 SWAP1 PUSH2 0x9D7 JUMP JUMPDEST PUSH2 0x1DA JUMP JUMPDEST STOP JUMPDEST PUSH2 0xCE PUSH1 0x4 DUP1 CALLDATASIZE SUB DUP2 ADD SWAP1 PUSH2 0xC9 SWAP2 SWAP1 PUSH2 0x9D7 JUMP JUMPDEST PUSH2 0x3A1 JUMP JUMPDEST PUSH1 0x40 MLOAD PUSH2 0xE0 SWAP7 SWAP6 SWAP5 SWAP4 SWAP3 SWAP2 SWAP1 PUSH2 0xAA3 JUMP JUMPDEST PUSH1 0x40 MLOAD DUP1 SWAP2 SUB SWAP1 RETURN JUMPDEST PUSH2 0x103 PUSH1 0x4 DUP1 CALLDATASIZE SUB DUP2 ADD SWAP1 PUSH2 0xFE SWAP2 SWAP1 PUSH2 0xC47 JUMP JUMPDEST PUSH2 0x4ED JUMP JUMPDEST STOP JUMPDEST PUSH2 0x10D PUSH2 0x579 JUMP JUMPDEST PUSH1 0x40 MLOAD PUSH2 0x11A SWAP2 SWAP1 PUSH2 0xCFA JUMP JUMPDEST PUSH1 0x40 MLOAD DUP1 SWAP2 SUB SWAP1 RETURN JUMPDEST PUSH2 0x13D PUSH1 0x4 DUP1 CALLDATASIZE SUB DUP2 ADD SWAP1 PUSH2 0x138 SWAP2 SWAP1 PUSH2 0x9D7 JUMP JUMPDEST PUSH2 0x57F JUMP JUMPDEST PUSH1 0x40 MLOAD PUSH2 0x14B SWAP3 SWAP2 SWAP1 PUSH2 0xD15 JUMP JUMPDEST PUSH1 0x40 MLOAD DUP1 SWAP2 SUB SWAP1 RETURN JUMPDEST PUSH2 0x15C PUSH2 0x62B JUMP JUMPDEST PUSH1 0x40 MLOAD PUSH2 0x169 SWAP2 SWAP1 PUSH2 0xCFA JUMP JUMPDEST PUSH1 0x40 MLOAD DUP1 SWAP2 SUB SWAP1 RETURN JUMPDEST PUSH2 0x18C PUSH1 0x4 DUP1 CALLDATASIZE SUB DUP2 ADD SWAP1 PUSH2 0x187 SWAP2 SWAP1 PUSH2 0xD45 JUMP JUMPDEST PUSH2 0x631 JUMP JUMPDEST STOP JUMPDEST PUSH2 0x1A8 PUSH1 0x4 DUP1 CALLDATASIZE SUB DUP2 ADD SWAP1 PUSH2 0x1A3 SWAP2 SWAP1 PUSH2 0xD8E JUMP JUMPDEST PUSH2 0x742 JUMP JUMPDEST STOP JUMPDEST PUSH2 0x1C4 PUSH1 0x4 DUP1 CALLDATASIZE SUB DUP2 ADD SWAP1 PUSH2 0x1BF SWAP2 SWAP1 PUSH2 0x9D7 JUMP JUMPDEST PUSH2 0x876 JUMP JUMPDEST PUSH1 0x40 MLOAD PUSH2 0x1D1 SWAP2 SWAP1 PUSH2 0xEFF JUMP JUMPDEST PUSH1 0x40 MLOAD DUP1 SWAP2 SUB SWAP1 RETURN JUMPDEST PUSH1 0x0 PUSH1 0x1 PUSH1 0x0 DUP4 DUP2 MSTORE PUSH1 0x20 ADD SWAP1 DUP2 MSTORE PUSH1 0x20 ADD PUSH1 0x0 KECCAK256 PUSH1 0x5 ADD SLOAD SWAP1 POP PUSH1 0x0 DUP1 PUSH1 0x0 DUP4 DUP2 MSTORE PUSH1 0x20 ADD SWAP1 DUP2 MSTORE PUSH1 0x20 ADD PUSH1 0x0 KECCAK256 SWAP1 POP PUSH1 0x0 DUP1 JUMPDEST DUP3 PUSH1 0x2 ADD DUP1 SLOAD SWAP1 POP DUP2 LT ISZERO PUSH2 0x25C JUMPI DUP5 DUP4 PUSH1 0x2 ADD DUP3 DUP2 SLOAD DUP2 LT PUSH2 0x235 JUMPI PUSH2 0x234 PUSH2 0xF21 JUMP JUMPDEST JUMPDEST SWAP1 PUSH1 0x0 MSTORE PUSH1 0x20 PUSH1 0x0 KECCAK256 ADD SLOAD SUB PUSH2 0x249 JUMPI DUP1 SWAP2 POP JUMPDEST DUP1 DUP1 PUSH2 0x254 SWAP1 PUSH2 0xF7F JUMP JUMPDEST SWAP2 POP POP PUSH2 0x20F JUMP JUMPDEST POP PUSH1 0x0 DUP2 SWAP1 POP JUMPDEST PUSH1 0x1 DUP4 PUSH1 0x2 ADD DUP1 SLOAD SWAP1 POP PUSH2 0x277 SWAP2 SWAP1 PUSH2 0xFC7 JUMP JUMPDEST DUP2 LT ISZERO PUSH2 0x2E2 JUMPI DUP3 PUSH1 0x2 ADD PUSH1 0x1 DUP3 PUSH2 0x28F SWAP2 SWAP1 PUSH2 0xFFB JUMP JUMPDEST DUP2 SLOAD DUP2 LT PUSH2 0x2A0 JUMPI PUSH2 0x29F PUSH2 0xF21 JUMP JUMPDEST JUMPDEST SWAP1 PUSH1 0x0 MSTORE PUSH1 0x20 PUSH1 0x0 KECCAK256 ADD SLOAD DUP4 PUSH1 0x2 ADD DUP3 DUP2 SLOAD DUP2 LT PUSH2 0x2C1 JUMPI PUSH2 0x2C0 PUSH2 0xF21 JUMP JUMPDEST JUMPDEST SWAP1 PUSH1 0x0 MSTORE PUSH1 0x20 PUSH1 0x0 KECCAK256 ADD DUP2 SWAP1 SSTORE POP DUP1 DUP1 PUSH2 0x2DA SWAP1 PUSH2 0xF7F JUMP JUMPDEST SWAP2 POP POP PUSH2 0x263 JUMP JUMPDEST POP DUP2 PUSH1 0x2 ADD DUP1 SLOAD DUP1 PUSH2 0x2F7 JUMPI PUSH2 0x2F6 PUSH2 0x102F JUMP JUMPDEST JUMPDEST PUSH1 0x1 SWAP1 SUB DUP2 DUP2 SWAP1 PUSH1 0x0 MSTORE PUSH1 0x20 PUSH1 0x0 KECCAK256 ADD PUSH1 0x0 SWAP1 SSTORE SWAP1 SSTORE PUSH1 0x1 PUSH1 0x0 DUP6 DUP2 MSTORE PUSH1 0x20 ADD SWAP1 DUP2 MSTORE PUSH1 0x20 ADD PUSH1 0x0 KECCAK256 PUSH1 0x0 DUP1 DUP3 ADD PUSH1 0x0 SWAP1 SSTORE PUSH1 0x1 DUP3 ADD PUSH1 0x0 SWAP1 SSTORE PUSH1 0x2 DUP3 ADD PUSH1 0x0 PUSH2 0x341 SWAP2 SWAP1 PUSH2 0x8E3 JUMP JUMPDEST PUSH1 0x3 DUP3 ADD PUSH1 0x0 PUSH2 0x351 SWAP2 SWAP1 PUSH2 0x8E3 JUMP JUMPDEST PUSH1 0x4 DUP3 ADD PUSH1 0x0 SWAP1 SSTORE PUSH1 0x5 DUP3 ADD PUSH1 0x0 SWAP1 SSTORE POP POP PUSH32 0x5DCACF1B737BF142A9057E3365018E63D7441EA69194A76BD8FF034F63F85203 PUSH1 0x1 PUSH1 0x40 MLOAD PUSH2 0x393 SWAP2 SWAP1 PUSH2 0x1079 JUMP JUMPDEST PUSH1 0x40 MLOAD DUP1 SWAP2 SUB SWAP1 LOG1 POP POP POP POP JUMP JUMPDEST PUSH1 0x1 PUSH1 0x20 MSTORE DUP1 PUSH1 0x0 MSTORE PUSH1 0x40 PUSH1 0x0 KECCAK256 PUSH1 0x0 SWAP2 POP SWAP1 POP DUP1 PUSH1 0x0 ADD SLOAD SWAP1 DUP1 PUSH1 0x1 ADD SLOAD SWAP1 DUP1 PUSH1 0x2 ADD DUP1 SLOAD PUSH2 0x3D0 SWAP1 PUSH2 0x10C3 JUMP JUMPDEST DUP1 PUSH1 0x1F ADD PUSH1 0x20 DUP1 SWAP2 DIV MUL PUSH1 0x20 ADD PUSH1 0x40 MLOAD SWAP1 DUP2 ADD PUSH1 0x40 MSTORE DUP1 SWAP3 SWAP2 SWAP1 DUP2 DUP2 MSTORE PUSH1 0x20 ADD DUP3 DUP1 SLOAD PUSH2 0x3FC SWAP1 PUSH2 0x10C3 JUMP JUMPDEST DUP1 ISZERO PUSH2 0x449 JUMPI DUP1 PUSH1 0x1F LT PUSH2 0x41E JUMPI PUSH2 0x100 DUP1 DUP4 SLOAD DIV MUL DUP4 MSTORE SWAP2 PUSH1 0x20 ADD SWAP2 PUSH2 0x449 JUMP JUMPDEST DUP3 ADD SWAP2 SWAP1 PUSH1 0x0 MSTORE PUSH1 0x20 PUSH1 0x0 KECCAK256 SWAP1 JUMPDEST DUP2 SLOAD DUP2 MSTORE SWAP1 PUSH1 0x1 ADD SWAP1 PUSH1 0x20 ADD DUP1 DUP4 GT PUSH2 0x42C JUMPI DUP3 SWAP1 SUB PUSH1 0x1F AND DUP3 ADD SWAP2 JUMPDEST POP POP POP POP POP SWAP1 DUP1 PUSH1 0x3 ADD DUP1 SLOAD PUSH2 0x45E SWAP1 PUSH2 0x10C3 JUMP JUMPDEST DUP1 PUSH1 0x1F ADD PUSH1 0x20 DUP1 SWAP2 DIV MUL PUSH1 0x20 ADD PUSH1 0x40 MLOAD SWAP1 DUP2 ADD PUSH1 0x40 MSTORE DUP1 SWAP3 SWAP2 SWAP1 DUP2 DUP2 MSTORE PUSH1 0x20 ADD DUP3 DUP1 SLOAD PUSH2 0x48A SWAP1 PUSH2 0x10C3 JUMP JUMPDEST DUP1 ISZERO PUSH2 0x4D7 JUMPI DUP1 PUSH1 0x1F LT PUSH2 0x4AC JUMPI PUSH2 0x100 DUP1 DUP4 SLOAD DIV MUL DUP4 MSTORE SWAP2 PUSH1 0x20 ADD SWAP2 PUSH2 0x4D7 JUMP JUMPDEST DUP3 ADD SWAP2 SWAP1 PUSH1 0x0 MSTORE PUSH1 0x20 PUSH1 0x0 KECCAK256 SWAP1 JUMPDEST DUP2 SLOAD DUP2 MSTORE SWAP1 PUSH1 0x1 ADD SWAP1 PUSH1 0x20 ADD DUP1 DUP4 GT PUSH2 0x4BA JUMPI DUP3 SWAP1 SUB PUSH1 0x1F AND DUP3 ADD SWAP2 JUMPDEST POP POP POP POP POP SWAP1 DUP1 PUSH1 0x4 ADD SLOAD SWAP1 DUP1 PUSH1 0x5 ADD SLOAD SWAP1 POP DUP7 JUMP JUMPDEST PUSH1 0x0 PUSH1 0x1 PUSH1 0x0 DUP8 DUP2 MSTORE PUSH1 0x20 ADD SWAP1 DUP2 MSTORE PUSH1 0x20 ADD PUSH1 0x0 KECCAK256 SWAP1 POP DUP4 DUP2 PUSH1 0x2 ADD SWAP1 DUP2 PUSH2 0x515 SWAP2 SWAP1 PUSH2 0x12A0 JUMP JUMPDEST POP DUP5 DUP2 PUSH1 0x1 ADD DUP2 SWAP1 SSTORE POP DUP2 DUP2 PUSH1 0x4 ADD DUP2 SWAP1 SSTORE POP DUP3 DUP2 PUSH1 0x3 ADD SWAP1 DUP2 PUSH2 0x539 SWAP2 SWAP1 PUSH2 0x12A0 JUMP JUMPDEST POP PUSH32 0x5A77BBE572433B2C0E924F2F75BF51216FA851F9C01F8A634197CF26F3A6D325 DUP2 PUSH1 0x40 MLOAD PUSH2 0x569 SWAP2 SWAP1 PUSH2 0x14F4 JUMP JUMPDEST PUSH1 0x40 MLOAD DUP1 SWAP2 SUB SWAP1 LOG1 POP POP POP POP POP POP JUMP JUMPDEST PUSH1 0x3 SLOAD DUP2 JUMP JUMPDEST PUSH1 0x0 PUSH1 0x20 MSTORE DUP1 PUSH1 0x0 MSTORE PUSH1 0x40 PUSH1 0x0 KECCAK256 PUSH1 0x0 SWAP2 POP SWAP1 POP DUP1 PUSH1 0x0 ADD SLOAD SWAP1 DUP1 PUSH1 0x1 ADD DUP1 SLOAD PUSH2 0x5A8 SWAP1 PUSH2 0x10C3 JUMP JUMPDEST DUP1 PUSH1 0x1F ADD PUSH1 0x20 DUP1 SWAP2 DIV MUL PUSH1 0x20 ADD PUSH1 0x40 MLOAD SWAP1 DUP2 ADD PUSH1 0x40 MSTORE DUP1 SWAP3 SWAP2 SWAP1 DUP2 DUP2 MSTORE PUSH1 0x20 ADD DUP3 DUP1 SLOAD PUSH2 0x5D4 SWAP1 PUSH2 0x10C3 JUMP JUMPDEST DUP1 ISZERO PUSH2 0x621 JUMPI DUP1 PUSH1 0x1F LT PUSH2 0x5F6 JUMPI PUSH2 0x100 DUP1 DUP4 SLOAD DIV MUL DUP4 MSTORE SWAP2 PUSH1 0x20 ADD SWAP2 PUSH2 0x621 JUMP JUMPDEST DUP3 ADD SWAP2 SWAP1 PUSH1 0x0 MSTORE PUSH1 0x20 PUSH1 0x0 KECCAK256 SWAP1 JUMPDEST DUP2 SLOAD DUP2 MSTORE SWAP1 PUSH1 0x1 ADD SWAP1 PUSH1 0x20 ADD DUP1 DUP4 GT PUSH2 0x604 JUMPI DUP3 SWAP1 SUB PUSH1 0x1F AND DUP3 ADD SWAP2 JUMPDEST POP POP POP POP POP SWAP1 POP DUP3 JUMP JUMPDEST PUSH1 0x2 SLOAD DUP2 JUMP JUMPDEST PUSH1 0x2 PUSH1 0x0 DUP2 SLOAD DUP1 SWAP3 SWAP2 SWAP1 PUSH2 0x644 SWAP1 PUSH2 0xF7F JUMP JUMPDEST SWAP2 SWAP1 POP SSTORE POP PUSH1 0x40 MLOAD DUP1 PUSH1 0x60 ADD PUSH1 0x40 MSTORE DUP1 PUSH1 0x2 SLOAD DUP2 MSTORE PUSH1 0x20 ADD DUP3 DUP2 MSTORE PUSH1 0x20 ADD PUSH1 0x0 PUSH8 0xFFFFFFFFFFFFFFFF DUP2 GT ISZERO PUSH2 0x67D JUMPI PUSH2 0x67C PUSH2 0xB1C JUMP JUMPDEST JUMPDEST PUSH1 0x40 MLOAD SWAP1 DUP1 DUP3 MSTORE DUP1 PUSH1 0x20 MUL PUSH1 0x20 ADD DUP3 ADD PUSH1 0x40 MSTORE DUP1 ISZERO PUSH2 0x6AB JUMPI DUP2 PUSH1 0x20 ADD PUSH1 0x20 DUP3 MUL DUP1 CALLDATASIZE DUP4 CALLDATACOPY DUP1 DUP3 ADD SWAP2 POP POP SWAP1 POP JUMPDEST POP DUP2 MSTORE POP PUSH1 0x0 DUP1 PUSH1 0x2 SLOAD DUP2 MSTORE PUSH1 0x20 ADD SWAP1 DUP2 MSTORE PUSH1 0x20 ADD PUSH1 0x0 KECCAK256 PUSH1 0x0 DUP3 ADD MLOAD DUP2 PUSH1 0x0 ADD SSTORE PUSH1 0x20 DUP3 ADD MLOAD DUP2 PUSH1 0x1 ADD SWAP1 DUP2 PUSH2 0x6E2 SWAP2 SWAP1 PUSH2 0x12A0 JUMP JUMPDEST POP PUSH1 0x40 DUP3 ADD MLOAD DUP2 PUSH1 0x2 ADD SWAP1 DUP1 MLOAD SWAP1 PUSH1 0x20 ADD SWAP1 PUSH2 0x6FF SWAP3 SWAP2 SWAP1 PUSH2 0x923 JUMP JUMPDEST POP SWAP1 POP POP PUSH32 0xB44D9BD7081F5C7671700A97BC6CBA1E3A60EB4CECAABDB370AC10B57BA7E9D4 PUSH1 0x1 PUSH1 0x2 SLOAD PUSH1 0x40 MLOAD PUSH2 0x737 SWAP3 SWAP2 SWAP1 PUSH2 0x1516 JUMP JUMPDEST PUSH1 0x40 MLOAD DUP1 SWAP2 SUB SWAP1 LOG1 POP JUMP JUMPDEST PUSH1 0x3 PUSH1 0x0 DUP2 SLOAD DUP1 SWAP3 SWAP2 SWAP1 PUSH2 0x755 SWAP1 PUSH2 0xF7F JUMP JUMPDEST SWAP2 SWAP1 POP SSTORE POP PUSH1 0x40 MLOAD DUP1 PUSH1 0xC0 ADD PUSH1 0x40 MSTORE DUP1 PUSH1 0x3 SLOAD DUP2 MSTORE PUSH1 0x20 ADD DUP7 DUP2 MSTORE PUSH1 0x20 ADD DUP6 DUP2 MSTORE PUSH1 0x20 ADD DUP5 DUP2 MSTORE PUSH1 0x20 ADD DUP4 DUP2 MSTORE PUSH1 0x20 ADD DUP3 DUP2 MSTORE POP PUSH1 0x1 PUSH1 0x0 PUSH1 0x3 SLOAD DUP2 MSTORE PUSH1 0x20 ADD SWAP1 DUP2 MSTORE PUSH1 0x20 ADD PUSH1 0x0 KECCAK256 PUSH1 0x0 DUP3 ADD MLOAD DUP2 PUSH1 0x0 ADD SSTORE PUSH1 0x20 DUP3 ADD MLOAD DUP2 PUSH1 0x1 ADD SSTORE PUSH1 0x40 DUP3 ADD MLOAD DUP2 PUSH1 0x2 ADD SWAP1 DUP2 PUSH2 0x7C7 SWAP2 SWAP1 PUSH2 0x12A0 JUMP JUMPDEST POP PUSH1 0x60 DUP3 ADD MLOAD DUP2 PUSH1 0x3 ADD SWAP1 DUP2 PUSH2 0x7DD SWAP2 SWAP1 PUSH2 0x12A0 JUMP JUMPDEST POP PUSH1 0x80 DUP3 ADD MLOAD DUP2 PUSH1 0x4 ADD SSTORE PUSH1 0xA0 DUP3 ADD MLOAD DUP2 PUSH1 0x5 ADD SSTORE SWAP1 POP POP PUSH1 0x0 DUP1 DUP3 DUP2 MSTORE PUSH1 0x20 ADD SWAP1 DUP2 MSTORE PUSH1 0x20 ADD PUSH1 0x0 KECCAK256 PUSH1 0x2 ADD PUSH1 0x3 SLOAD SWAP1 DUP1 PUSH1 0x1 DUP2 SLOAD ADD DUP1 DUP3 SSTORE DUP1 SWAP2 POP POP PUSH1 0x1 SWAP1 SUB SWAP1 PUSH1 0x0 MSTORE PUSH1 0x20 PUSH1 0x0 KECCAK256 ADD PUSH1 0x0 SWAP1 SWAP2 SWAP1 SWAP2 SWAP1 SWAP2 POP SSTORE PUSH32 0xE7D5DFAEC753FC9012F5BC793B639CB633DB0C781574D2831EA2466933D4D9B6 PUSH1 0x1 PUSH1 0x3 SLOAD PUSH1 0x40 MLOAD PUSH2 0x867 SWAP3 SWAP2 SWAP1 PUSH2 0x1516 JUMP JUMPDEST PUSH1 0x40 MLOAD DUP1 SWAP2 SUB SWAP1 LOG1 POP POP POP POP POP JUMP JUMPDEST PUSH1 0x60 PUSH1 0x0 DUP1 DUP4 DUP2 MSTORE PUSH1 0x20 ADD SWAP1 DUP2 MSTORE PUSH1 0x20 ADD PUSH1 0x0 KECCAK256 PUSH1 0x2 ADD DUP1 SLOAD DUP1 PUSH1 0x20 MUL PUSH1 0x20 ADD PUSH1 0x40 MLOAD SWAP1 DUP2 ADD PUSH1 0x40 MSTORE DUP1 SWAP3 SWAP2 SWAP1 DUP2 DUP2 MSTORE PUSH1 0x20 ADD DUP3 DUP1 SLOAD DUP1 ISZERO PUSH2 0x8D7 JUMPI PUSH1 0x20 MUL DUP3 ADD SWAP2 SWAP1 PUSH1 0x0 MSTORE PUSH1 0x20 PUSH1 0x0 KECCAK256 SWAP1 JUMPDEST DUP2 SLOAD DUP2 MSTORE PUSH1 0x20 ADD SWAP1 PUSH1 0x1 ADD SWAP1 DUP1 DUP4 GT PUSH2 0x8C3 JUMPI JUMPDEST POP POP POP POP POP SWAP1 POP SWAP2 SWAP1 POP JUMP JUMPDEST POP DUP1 SLOAD PUSH2 0x8EF SWAP1 PUSH2 0x10C3 JUMP JUMPDEST PUSH1 0x0 DUP3 SSTORE DUP1 PUSH1 0x1F LT PUSH2 0x901 JUMPI POP PUSH2 0x920 JUMP JUMPDEST PUSH1 0x1F ADD PUSH1 0x20 SWAP1 DIV SWAP1 PUSH1 0x0 MSTORE PUSH1 0x20 PUSH1 0x0 KECCAK256 SWAP1 DUP2 ADD SWAP1 PUSH2 0x91F SWAP2 SWAP1 PUSH2 0x970 JUMP JUMPDEST JUMPDEST POP JUMP JUMPDEST DUP3 DUP1 SLOAD DUP3 DUP3 SSTORE SWAP1 PUSH1 0x0 MSTORE PUSH1 0x20 PUSH1 0x0 KECCAK256 SWAP1 DUP2 ADD SWAP3 DUP3 ISZERO PUSH2 0x95F JUMPI SWAP2 PUSH1 0x20 MUL DUP3 ADD JUMPDEST DUP3 DUP2 GT ISZERO PUSH2 0x95E JUMPI DUP3 MLOAD DUP3 SSTORE SWAP2 PUSH1 0x20 ADD SWAP2 SWAP1 PUSH1 0x1 ADD SWAP1 PUSH2 0x943 JUMP JUMPDEST JUMPDEST POP SWAP1 POP PUSH2 0x96C SWAP2 SWAP1 PUSH2 0x970 JUMP JUMPDEST POP SWAP1 JUMP JUMPDEST JUMPDEST DUP1 DUP3 GT ISZERO PUSH2 0x989 JUMPI PUSH1 0x0 DUP2 PUSH1 0x0 SWAP1 SSTORE POP PUSH1 0x1 ADD PUSH2 0x971 JUMP JUMPDEST POP SWAP1 JUMP JUMPDEST PUSH1 0x0 PUSH1 0x40 MLOAD SWAP1 POP SWAP1 JUMP JUMPDEST PUSH1 0x0 DUP1 REVERT JUMPDEST PUSH1 0x0 DUP1 REVERT JUMPDEST PUSH1 0x0 DUP2 SWAP1 POP SWAP2 SWAP1 POP JUMP JUMPDEST PUSH2 0x9B4 DUP2 PUSH2 0x9A1 JUMP JUMPDEST DUP2 EQ PUSH2 0x9BF JUMPI PUSH1 0x0 DUP1 REVERT JUMPDEST POP JUMP JUMPDEST PUSH1 0x0 DUP2 CALLDATALOAD SWAP1 POP PUSH2 0x9D1 DUP2 PUSH2 0x9AB JUMP JUMPDEST SWAP3 SWAP2 POP POP JUMP JUMPDEST PUSH1 0x0 PUSH1 0x20 DUP3 DUP5 SUB SLT ISZERO PUSH2 0x9ED JUMPI PUSH2 0x9EC PUSH2 0x997 JUMP JUMPDEST JUMPDEST PUSH1 0x0 PUSH2 0x9FB DUP5 DUP3 DUP6 ADD PUSH2 0x9C2 JUMP JUMPDEST SWAP2 POP POP SWAP3 SWAP2 POP POP JUMP JUMPDEST PUSH2 0xA0D DUP2 PUSH2 0x9A1 JUMP JUMPDEST DUP3 MSTORE POP POP JUMP JUMPDEST PUSH1 0x0 DUP2 MLOAD SWAP1 POP SWAP2 SWAP1 POP JUMP JUMPDEST PUSH1 0x0 DUP3 DUP3 MSTORE PUSH1 0x20 DUP3 ADD SWAP1 POP SWAP3 SWAP2 POP POP JUMP JUMPDEST PUSH1 0x0 JUMPDEST DUP4 DUP2 LT ISZERO PUSH2 0xA4D JUMPI DUP1 DUP3 ADD MLOAD DUP2 DUP5 ADD MSTORE PUSH1 0x20 DUP2 ADD SWAP1 POP PUSH2 0xA32 JUMP JUMPDEST PUSH1 0x0 DUP5 DUP5 ADD MSTORE POP POP POP POP JUMP JUMPDEST PUSH1 0x0 PUSH1 0x1F NOT PUSH1 0x1F DUP4 ADD AND SWAP1 POP SWAP2 SWAP1 POP JUMP JUMPDEST PUSH1 0x0 PUSH2 0xA75 DUP3 PUSH2 0xA13 JUMP JUMPDEST PUSH2 0xA7F DUP2 DUP6 PUSH2 0xA1E JUMP JUMPDEST SWAP4 POP PUSH2 0xA8F DUP2 DUP6 PUSH1 0x20 DUP7 ADD PUSH2 0xA2F JUMP JUMPDEST PUSH2 0xA98 DUP2 PUSH2 0xA59 JUMP JUMPDEST DUP5 ADD SWAP2 POP POP SWAP3 SWAP2 POP POP JUMP JUMPDEST PUSH1 0x0 PUSH1 0xC0 DUP3 ADD SWAP1 POP PUSH2 0xAB8 PUSH1 0x0 DUP4 ADD DUP10 PUSH2 0xA04 JUMP JUMPDEST PUSH2 0xAC5 PUSH1 0x20 DUP4 ADD DUP9 PUSH2 0xA04 JUMP JUMPDEST DUP2 DUP2 SUB PUSH1 0x40 DUP4 ADD MSTORE PUSH2 0xAD7 DUP2 DUP8 PUSH2 0xA6A JUMP JUMPDEST SWAP1 POP DUP2 DUP2 SUB PUSH1 0x60 DUP4 ADD MSTORE PUSH2 0xAEB DUP2 DUP7 PUSH2 0xA6A JUMP JUMPDEST SWAP1 POP PUSH2 0xAFA PUSH1 0x80 DUP4 ADD DUP6 PUSH2 0xA04 JUMP JUMPDEST PUSH2 0xB07 PUSH1 0xA0 DUP4 ADD DUP5 PUSH2 0xA04 JUMP JUMPDEST SWAP8 SWAP7 POP POP POP POP POP POP POP JUMP JUMPDEST PUSH1 0x0 DUP1 REVERT JUMPDEST PUSH1 0x0 DUP1 REVERT JUMPDEST PUSH32 0x4E487B7100000000000000000000000000000000000000000000000000000000 PUSH1 0x0 MSTORE PUSH1 0x41 PUSH1 0x4 MSTORE PUSH1 0x24 PUSH1 0x0 REVERT JUMPDEST PUSH2 0xB54 DUP3 PUSH2 0xA59 JUMP JUMPDEST DUP2 ADD DUP2 DUP2 LT PUSH8 0xFFFFFFFFFFFFFFFF DUP3 GT OR ISZERO PUSH2 0xB73 JUMPI PUSH2 0xB72 PUSH2 0xB1C JUMP JUMPDEST JUMPDEST DUP1 PUSH1 0x40 MSTORE POP POP POP JUMP JUMPDEST PUSH1 0x0 PUSH2 0xB86 PUSH2 0x98D JUMP JUMPDEST SWAP1 POP PUSH2 0xB92 DUP3 DUP3 PUSH2 0xB4B JUMP JUMPDEST SWAP2 SWAP1 POP JUMP JUMPDEST PUSH1 0x0 PUSH8 0xFFFFFFFFFFFFFFFF DUP3 GT ISZERO PUSH2 0xBB2 JUMPI PUSH2 0xBB1 PUSH2 0xB1C JUMP JUMPDEST JUMPDEST PUSH2 0xBBB DUP3 PUSH2 0xA59 JUMP JUMPDEST SWAP1 POP PUSH1 0x20 DUP2 ADD SWAP1 POP SWAP2 SWAP1 POP JUMP JUMPDEST DUP3 DUP2 DUP4 CALLDATACOPY PUSH1 0x0 DUP4 DUP4 ADD MSTORE POP POP POP JUMP JUMPDEST PUSH1 0x0 PUSH2 0xBEA PUSH2 0xBE5 DUP5 PUSH2 0xB97 JUMP JUMPDEST PUSH2 0xB7C JUMP JUMPDEST SWAP1 POP DUP3 DUP2 MSTORE PUSH1 0x20 DUP2 ADD DUP5 DUP5 DUP5 ADD GT ISZERO PUSH2 0xC06 JUMPI PUSH2 0xC05 PUSH2 0xB17 JUMP JUMPDEST JUMPDEST PUSH2 0xC11 DUP5 DUP3 DUP6 PUSH2 0xBC8 JUMP JUMPDEST POP SWAP4 SWAP3 POP POP POP JUMP JUMPDEST PUSH1 0x0 DUP3 PUSH1 0x1F DUP4 ADD SLT PUSH2 0xC2E JUMPI PUSH2 0xC2D PUSH2 0xB12 JUMP JUMPDEST JUMPDEST DUP2 CALLDATALOAD PUSH2 0xC3E DUP5 DUP3 PUSH1 0x20 DUP7 ADD PUSH2 0xBD7 JUMP JUMPDEST SWAP2 POP POP SWAP3 SWAP2 POP POP JUMP JUMPDEST PUSH1 0x0 DUP1 PUSH1 0x0 DUP1 PUSH1 0x0 PUSH1 0xA0 DUP7 DUP9 SUB SLT ISZERO PUSH2 0xC63 JUMPI PUSH2 0xC62 PUSH2 0x997 JUMP JUMPDEST JUMPDEST PUSH1 0x0 PUSH2 0xC71 DUP9 DUP3 DUP10 ADD PUSH2 0x9C2 JUMP JUMPDEST SWAP6 POP POP PUSH1 0x20 PUSH2 0xC82 DUP9 DUP3 DUP10 ADD PUSH2 0x9C2 JUMP JUMPDEST SWAP5 POP POP PUSH1 0x40 DUP7 ADD CALLDATALOAD PUSH8 0xFFFFFFFFFFFFFFFF DUP2 GT ISZERO PUSH2 0xCA3 JUMPI PUSH2 0xCA2 PUSH2 0x99C JUMP JUMPDEST JUMPDEST PUSH2 0xCAF DUP9 DUP3 DUP10 ADD PUSH2 0xC19 JUMP JUMPDEST SWAP4 POP POP PUSH1 0x60 DUP7 ADD CALLDATALOAD PUSH8 0xFFFFFFFFFFFFFFFF DUP2 GT ISZERO PUSH2 0xCD0 JUMPI PUSH2 0xCCF PUSH2 0x99C JUMP JUMPDEST JUMPDEST PUSH2 0xCDC DUP9 DUP3 DUP10 ADD PUSH2 0xC19 JUMP JUMPDEST SWAP3 POP POP PUSH1 0x80 PUSH2 0xCED DUP9 DUP3 DUP10 ADD PUSH2 0x9C2 JUMP JUMPDEST SWAP2 POP POP SWAP3 SWAP6 POP SWAP3 SWAP6 SWAP1 SWAP4 POP JUMP JUMPDEST PUSH1 0x0 PUSH1 0x20 DUP3 ADD SWAP1 POP PUSH2 0xD0F PUSH1 0x0 DUP4 ADD DUP5 PUSH2 0xA04 JUMP JUMPDEST SWAP3 SWAP2 POP POP JUMP JUMPDEST PUSH1 0x0 PUSH1 0x40 DUP3 ADD SWAP1 POP PUSH2 0xD2A PUSH1 0x0 DUP4 ADD DUP6 PUSH2 0xA04 JUMP JUMPDEST DUP2 DUP2 SUB PUSH1 0x20 DUP4 ADD MSTORE PUSH2 0xD3C DUP2 DUP5 PUSH2 0xA6A JUMP JUMPDEST SWAP1 POP SWAP4 SWAP3 POP POP POP JUMP JUMPDEST PUSH1 0x0 PUSH1 0x20 DUP3 DUP5 SUB SLT ISZERO PUSH2 0xD5B JUMPI PUSH2 0xD5A PUSH2 0x997 JUMP JUMPDEST JUMPDEST PUSH1 0x0 DUP3 ADD CALLDATALOAD PUSH8 0xFFFFFFFFFFFFFFFF DUP2 GT ISZERO PUSH2 0xD79 JUMPI PUSH2 0xD78 PUSH2 0x99C JUMP JUMPDEST JUMPDEST PUSH2 0xD85 DUP5 DUP3 DUP6 ADD PUSH2 0xC19 JUMP JUMPDEST SWAP2 POP POP SWAP3 SWAP2 POP POP JUMP JUMPDEST PUSH1 0x0 DUP1 PUSH1 0x0 DUP1 PUSH1 0x0 PUSH1 0xA0 DUP7 DUP9 SUB SLT ISZERO PUSH2 0xDAA JUMPI PUSH2 0xDA9 PUSH2 0x997 JUMP JUMPDEST JUMPDEST PUSH1 0x0 PUSH2 0xDB8 DUP9 DUP3 DUP10 ADD PUSH2 0x9C2 JUMP JUMPDEST SWAP6 POP POP PUSH1 0x20 DUP7 ADD CALLDATALOAD PUSH8 0xFFFFFFFFFFFFFFFF DUP2 GT ISZERO PUSH2 0xDD9 JUMPI PUSH2 0xDD8 PUSH2 0x99C JUMP JUMPDEST JUMPDEST PUSH2 0xDE5 DUP9 DUP3 DUP10 ADD PUSH2 0xC19 JUMP JUMPDEST SWAP5 POP POP PUSH1 0x40 DUP7 ADD CALLDATALOAD PUSH8 0xFFFFFFFFFFFFFFFF DUP2 GT ISZERO PUSH2 0xE06 JUMPI PUSH2 0xE05 PUSH2 0x99C JUMP JUMPDEST JUMPDEST PUSH2 0xE12 DUP9 DUP3 DUP10 ADD PUSH2 0xC19 JUMP JUMPDEST SWAP4 POP POP PUSH1 0x60 PUSH2 0xE23 DUP9 DUP3 DUP10 ADD PUSH2 0x9C2 JUMP JUMPDEST SWAP3 POP POP PUSH1 0x80 PUSH2 0xE34 DUP9 DUP3 DUP10 ADD PUSH2 0x9C2 JUMP JUMPDEST SWAP2 POP POP SWAP3 SWAP6 POP SWAP3 SWAP6 SWAP1 SWAP4 POP JUMP JUMPDEST PUSH1 0x0 DUP2 MLOAD SWAP1 POP SWAP2 SWAP1 POP JUMP JUMPDEST PUSH1 0x0 DUP3 DUP3 MSTORE PUSH1 0x20 DUP3 ADD SWAP1 POP SWAP3 SWAP2 POP POP JUMP JUMPDEST PUSH1 0x0 DUP2 SWAP1 POP PUSH1 0x20 DUP3 ADD SWAP1 POP SWAP2 SWAP1 POP JUMP JUMPDEST PUSH2 0xE76 DUP2 PUSH2 0x9A1 JUMP JUMPDEST DUP3 MSTORE POP POP JUMP JUMPDEST PUSH1 0x0 PUSH2 0xE88 DUP4 DUP4 PUSH2 0xE6D JUMP JUMPDEST PUSH1 0x20 DUP4 ADD SWAP1 POP SWAP3 SWAP2 POP POP JUMP JUMPDEST PUSH1 0x0 PUSH1 0x20 DUP3 ADD SWAP1 POP SWAP2 SWAP1 POP JUMP JUMPDEST PUSH1 0x0 PUSH2 0xEAC DUP3 PUSH2 0xE41 JUMP JUMPDEST PUSH2 0xEB6 DUP2 DUP6 PUSH2 0xE4C JUMP JUMPDEST SWAP4 POP PUSH2 0xEC1 DUP4 PUSH2 0xE5D JUMP JUMPDEST DUP1 PUSH1 0x0 JUMPDEST DUP4 DUP2 LT ISZERO PUSH2 0xEF2 JUMPI DUP2 MLOAD PUSH2 0xED9 DUP9 DUP3 PUSH2 0xE7C JUMP JUMPDEST SWAP8 POP PUSH2 0xEE4 DUP4 PUSH2 0xE94 JUMP JUMPDEST SWAP3 POP POP PUSH1 0x1 DUP2 ADD SWAP1 POP PUSH2 0xEC5 JUMP JUMPDEST POP DUP6 SWAP4 POP POP POP POP SWAP3 SWAP2 POP POP JUMP JUMPDEST PUSH1 0x0 PUSH1 0x20 DUP3 ADD SWAP1 POP DUP2 DUP2 SUB PUSH1 0x0 DUP4 ADD MSTORE PUSH2 0xF19 DUP2 DUP5 PUSH2 0xEA1 JUMP JUMPDEST SWAP1 POP SWAP3 SWAP2 POP POP JUMP JUMPDEST PUSH32 0x4E487B7100000000000000000000000000000000000000000000000000000000 PUSH1 0x0 MSTORE PUSH1 0x32 PUSH1 0x4 MSTORE PUSH1 0x24 PUSH1 0x0 REVERT JUMPDEST PUSH32 0x4E487B7100000000000000000000000000000000000000000000000000000000 PUSH1 0x0 MSTORE PUSH1 0x11 PUSH1 0x4 MSTORE PUSH1 0x24 PUSH1 0x0 REVERT JUMPDEST PUSH1 0x0 PUSH2 0xF8A DUP3 PUSH2 0x9A1 JUMP JUMPDEST SWAP2 POP PUSH32 0xFFFFFFFFFFFFFFFFFFFFFFFFFFFFFFFFFFFFFFFFFFFFFFFFFFFFFFFFFFFFFFFF DUP3 SUB PUSH2 0xFBC JUMPI PUSH2 0xFBB PUSH2 0xF50 JUMP JUMPDEST JUMPDEST PUSH1 0x1 DUP3 ADD SWAP1 POP SWAP2 SWAP1 POP JUMP JUMPDEST PUSH1 0x0 PUSH2 0xFD2 DUP3 PUSH2 0x9A1 JUMP JUMPDEST SWAP2 POP PUSH2 0xFDD DUP4 PUSH2 0x9A1 JUMP JUMPDEST SWAP3 POP DUP3 DUP3 SUB SWAP1 POP DUP2 DUP2 GT ISZERO PUSH2 0xFF5 JUMPI PUSH2 0xFF4 PUSH2 0xF50 JUMP JUMPDEST JUMPDEST SWAP3 SWAP2 POP POP JUMP JUMPDEST PUSH1 0x0 PUSH2 0x1006 DUP3 PUSH2 0x9A1 JUMP JUMPDEST SWAP2 POP PUSH2 0x1011 DUP4 PUSH2 0x9A1 JUMP JUMPDEST SWAP3 POP DUP3 DUP3 ADD SWAP1 POP DUP1 DUP3 GT ISZERO PUSH2 0x1029 JUMPI PUSH2 0x1028 PUSH2 0xF50 JUMP JUMPDEST JUMPDEST SWAP3 SWAP2 POP POP JUMP JUMPDEST PUSH32 0x4E487B7100000000000000000000000000000000000000000000000000000000 PUSH1 0x0 MSTORE PUSH1 0x31 PUSH1 0x4 MSTORE PUSH1 0x24 PUSH1 0x0 REVERT JUMPDEST PUSH1 0x0 DUP2 ISZERO ISZERO SWAP1 POP SWAP2 SWAP1 POP JUMP JUMPDEST PUSH2 0x1073 DUP2 PUSH2 0x105E JUMP JUMPDEST DUP3 MSTORE POP POP JUMP JUMPDEST PUSH1 0x0 PUSH1 0x20 DUP3 ADD SWAP1 POP PUSH2 0x108E PUSH1 0x0 DUP4 ADD DUP5 PUSH2 0x106A JUMP JUMPDEST SWAP3 SWAP2 POP POP JUMP JUMPDEST PUSH32 0x4E487B7100000000000000000000000000000000000000000000000000000000 PUSH1 0x0 MSTORE PUSH1 0x22 PUSH1 0x4 MSTORE PUSH1 0x24 PUSH1 0x0 REVERT JUMPDEST PUSH1 0x0 PUSH1 0x2 DUP3 DIV SWAP1 POP PUSH1 0x1 DUP3 AND DUP1 PUSH2 0x10DB JUMPI PUSH1 0x7F DUP3 AND SWAP2 POP JUMPDEST PUSH1 0x20 DUP3 LT DUP2 SUB PUSH2 0x10EE JUMPI PUSH2 0x10ED PUSH2 0x1094 JUMP JUMPDEST JUMPDEST POP SWAP2 SWAP1 POP JUMP JUMPDEST PUSH1 0x0 DUP2 SWAP1 POP DUP2 PUSH1 0x0 MSTORE PUSH1 0x20 PUSH1 0x0 KECCAK256 SWAP1 POP SWAP2 SWAP1 POP JUMP JUMPDEST PUSH1 0x0 PUSH1 0x20 PUSH1 0x1F DUP4 ADD DIV SWAP1 POP SWAP2 SWAP1 POP JUMP JUMPDEST PUSH1 0x0 DUP3 DUP3 SHL SWAP1 POP SWAP3 SWAP2 POP POP JUMP JUMPDEST PUSH1 0x0 PUSH1 0x8 DUP4 MUL PUSH2 0x1156 PUSH32 0xFFFFFFFFFFFFFFFFFFFFFFFFFFFFFFFFFFFFFFFFFFFFFFFFFFFFFFFFFFFFFFFF DUP3 PUSH2 0x1119 JUMP JUMPDEST PUSH2 0x1160 DUP7 DUP4 PUSH2 0x1119 JUMP JUMPDEST SWAP6 POP DUP1 NOT DUP5 AND SWAP4 POP DUP1 DUP7 AND DUP5 OR SWAP3 POP POP POP SWAP4 SWAP3 POP POP POP JUMP JUMPDEST PUSH1 0x0 DUP2 SWAP1 POP SWAP2 SWAP1 POP JUMP JUMPDEST PUSH1 0x0 PUSH2 0x119D PUSH2 0x1198 PUSH2 0x1193 DUP5 PUSH2 0x9A1 JUMP JUMPDEST PUSH2 0x1178 JUMP JUMPDEST PUSH2 0x9A1 JUMP JUMPDEST SWAP1 POP SWAP2 SWAP1 POP JUMP JUMPDEST PUSH1 0x0 DUP2 SWAP1 POP SWAP2 SWAP1 POP JUMP JUMPDEST PUSH2 0x11B7 DUP4 PUSH2 0x1182 JUMP JUMPDEST PUSH2 0x11CB PUSH2 0x11C3 DUP3 PUSH2 0x11A4 JUMP JUMPDEST DUP5 DUP5 SLOAD PUSH2 0x1126 JUMP JUMPDEST DUP3 SSTORE POP POP POP POP JUMP JUMPDEST PUSH1 0x0 SWAP1 JUMP JUMPDEST PUSH2 0x11E0 PUSH2 0x11D3 JUMP JUMPDEST PUSH2 0x11EB DUP2 DUP5 DUP5 PUSH2 0x11AE JUMP JUMPDEST POP POP POP JUMP JUMPDEST JUMPDEST DUP2 DUP2 LT ISZERO PUSH2 0x120F JUMPI PUSH2 0x1204 PUSH1 0x0 DUP3 PUSH2 0x11D8 JUMP JUMPDEST PUSH1 0x1 DUP2 ADD SWAP1 POP PUSH2 0x11F1 JUMP JUMPDEST POP POP JUMP JUMPDEST PUSH1 0x1F DUP3 GT ISZERO PUSH2 0x1254 JUMPI PUSH2 0x1225 DUP2 PUSH2 0x10F4 JUMP JUMPDEST PUSH2 0x122E DUP5 PUSH2 0x1109 JUMP JUMPDEST DUP2 ADD PUSH1 0x20 DUP6 LT ISZERO PUSH2 0x123D JUMPI DUP2 SWAP1 POP JUMPDEST PUSH2 0x1251 PUSH2 0x1249 DUP6 PUSH2 0x1109 JUMP JUMPDEST DUP4 ADD DUP3 PUSH2 0x11F0 JUMP JUMPDEST POP POP JUMPDEST POP POP POP JUMP JUMPDEST PUSH1 0x0 DUP3 DUP3 SHR SWAP1 POP SWAP3 SWAP2 POP POP JUMP JUMPDEST PUSH1 0x0 PUSH2 0x1277 PUSH1 0x0 NOT DUP5 PUSH1 0x8 MUL PUSH2 0x1259 JUMP JUMPDEST NOT DUP1 DUP4 AND SWAP2 POP POP SWAP3 SWAP2 POP POP JUMP JUMPDEST PUSH1 0x0 PUSH2 0x1290 DUP4 DUP4 PUSH2 0x1266 JUMP JUMPDEST SWAP2 POP DUP3 PUSH1 0x2 MUL DUP3 OR SWAP1 POP SWAP3 SWAP2 POP POP JUMP JUMPDEST PUSH2 0x12A9 DUP3 PUSH2 0xA13 JUMP JUMPDEST PUSH8 0xFFFFFFFFFFFFFFFF DUP2 GT ISZERO PUSH2 0x12C2 JUMPI PUSH2 0x12C1 PUSH2 0xB1C JUMP JUMPDEST JUMPDEST PUSH2 0x12CC DUP3 SLOAD PUSH2 0x10C3 JUMP JUMPDEST PUSH2 0x12D7 DUP3 DUP3 DUP6 PUSH2 0x1213 JUMP JUMPDEST PUSH1 0x0 PUSH1 0x20 SWAP1 POP PUSH1 0x1F DUP4 GT PUSH1 0x1 DUP2 EQ PUSH2 0x130A JUMPI PUSH1 0x0 DUP5 ISZERO PUSH2 0x12F8 JUMPI DUP3 DUP8 ADD MLOAD SWAP1 POP JUMPDEST PUSH2 0x1302 DUP6 DUP3 PUSH2 0x1284 JUMP JUMPDEST DUP7 SSTORE POP PUSH2 0x136A JUMP JUMPDEST PUSH1 0x1F NOT DUP5 AND PUSH2 0x1318 DUP7 PUSH2 0x10F4 JUMP JUMPDEST PUSH1 0x0 JUMPDEST DUP3 DUP2 LT ISZERO PUSH2 0x1340 JUMPI DUP5 DUP10 ADD MLOAD DUP3 SSTORE PUSH1 0x1 DUP3 ADD SWAP2 POP PUSH1 0x20 DUP6 ADD SWAP5 POP PUSH1 0x20 DUP2 ADD SWAP1 POP PUSH2 0x131B JUMP JUMPDEST DUP7 DUP4 LT ISZERO PUSH2 0x135D JUMPI DUP5 DUP10 ADD MLOAD PUSH2 0x1359 PUSH1 0x1F DUP10 AND DUP3 PUSH2 0x1266 JUMP JUMPDEST DUP4 SSTORE POP JUMPDEST PUSH1 0x1 PUSH1 0x2 DUP9 MUL ADD DUP9 SSTORE POP POP POP JUMPDEST POP POP POP POP POP POP JUMP JUMPDEST PUSH1 0x0 DUP2 PUSH1 0x0 SHR SWAP1 POP SWAP2 SWAP1 POP JUMP JUMPDEST PUSH1 0x0 DUP2 SWAP1 POP SWAP2 SWAP1 POP JUMP JUMPDEST PUSH1 0x0 PUSH2 0x139C PUSH2 0x1397 DUP4 PUSH2 0x1372 JUMP JUMPDEST PUSH2 0x137F JUMP JUMPDEST SWAP1 POP SWAP2 SWAP1 POP JUMP JUMPDEST PUSH1 0x0 DUP3 DUP3 MSTORE PUSH1 0x20 DUP3 ADD SWAP1 POP SWAP3 SWAP2 POP POP JUMP JUMPDEST PUSH1 0x0 DUP2 SLOAD PUSH2 0x13C1 DUP2 PUSH2 0x10C3 JUMP JUMPDEST PUSH2 0x13CB DUP2 DUP7 PUSH2 0x13A3 JUMP JUMPDEST SWAP5 POP PUSH1 0x1 DUP3 AND PUSH1 0x0 DUP2 EQ PUSH2 0x13E6 JUMPI PUSH1 0x1 DUP2 EQ PUSH2 0x13FC JUMPI PUSH2 0x142F JUMP JUMPDEST PUSH1 0xFF NOT DUP4 AND DUP7 MSTORE DUP2 ISZERO ISZERO PUSH1 0x20 MUL DUP7 ADD SWAP4 POP PUSH2 0x142F JUMP JUMPDEST PUSH2 0x1405 DUP6 PUSH2 0x10F4 JUMP JUMPDEST PUSH1 0x0 JUMPDEST DUP4 DUP2 LT ISZERO PUSH2 0x1427 JUMPI DUP2 SLOAD DUP2 DUP10 ADD MSTORE PUSH1 0x1 DUP3 ADD SWAP2 POP PUSH1 0x20 DUP2 ADD SWAP1 POP PUSH2 0x1408 JUMP JUMPDEST DUP1 DUP9 ADD SWAP6 POP POP POP JUMPDEST POP POP POP SWAP3 SWAP2 POP POP JUMP JUMPDEST PUSH1 0x0 PUSH1 0xC0 DUP4 ADD PUSH1 0x0 DUP1 DUP5 ADD SLOAD SWAP1 POP PUSH2 0x144F DUP2 PUSH2 0x1389 JUMP JUMPDEST PUSH2 0x145C PUSH1 0x0 DUP8 ADD DUP3 PUSH2 0xE6D JUMP JUMPDEST POP PUSH1 0x1 DUP5 ADD SLOAD SWAP1 POP PUSH2 0x146D DUP2 PUSH2 0x1389 JUMP JUMPDEST PUSH2 0x147A PUSH1 0x20 DUP8 ADD DUP3 PUSH2 0xE6D JUMP JUMPDEST POP PUSH1 0x2 DUP5 ADD DUP6 DUP4 SUB PUSH1 0x40 DUP8 ADD MSTORE PUSH2 0x1491 DUP4 DUP3 PUSH2 0x13B4 JUMP JUMPDEST SWAP3 POP POP PUSH1 0x3 DUP5 ADD DUP6 DUP4 SUB PUSH1 0x60 DUP8 ADD MSTORE PUSH2 0x14AA DUP4 DUP3 PUSH2 0x13B4 JUMP JUMPDEST SWAP3 POP POP PUSH1 0x4 DUP5 ADD SLOAD SWAP1 POP PUSH2 0x14BD DUP2 PUSH2 0x1389 JUMP JUMPDEST PUSH2 0x14CA PUSH1 0x80 DUP8 ADD DUP3 PUSH2 0xE6D JUMP JUMPDEST POP PUSH1 0x5 DUP5 ADD SLOAD SWAP1 POP PUSH2 0x14DB DUP2 PUSH2 0x1389 JUMP JUMPDEST PUSH2 0x14E8 PUSH1 0xA0 DUP8 ADD DUP3 PUSH2 0xE6D JUMP JUMPDEST POP DUP2 SWAP3 POP POP POP SWAP3 SWAP2 POP POP JUMP JUMPDEST PUSH1 0x0 PUSH1 0x20 DUP3 ADD SWAP1 POP DUP2 DUP2 SUB PUSH1 0x0 DUP4 ADD MSTORE PUSH2 0x150E DUP2 DUP5 PUSH2 0x1438 JUMP JUMPDEST SWAP1 POP SWAP3 SWAP2 POP POP JUMP JUMPDEST PUSH1 0x0 PUSH1 0x40 DUP3 ADD SWAP1 POP PUSH2 0x152B PUSH1 0x0 DUP4 ADD DUP6 PUSH2 0x106A JUMP JUMPDEST PUSH2 0x1538 PUSH1 0x20 DUP4 ADD DUP5 PUSH2 0xA04 JUMP JUMPDEST SWAP4 SWAP3 POP POP POP JUMP INVALID LOG2 PUSH5 0x6970667358 0x22 SLT KECCAK256 MLOAD BLOCKHASH 0xD1 SDIV 0xE8 0xAC 0xA6 MSTORE 0xBA 0x29 0xEB 0xE4 0x29 0xAC JUMPDEST 0xF8 0xAF 0xF7 0xDA 0xEC RETURN JUMPI SWAP2 DUP11 SWAP13 DELEGATECALL BYTE 0xCB DIV 0x27 0xE5 SWAP1 PUSH5 0x736F6C6343 STOP ADDMOD GT STOP CALLER "
        },
        "methodIdentifiers": {
          "bookingCount()": "6d759172",
          "bookings(uint256)": "1dab301e",
          "createBooking(uint256,string,string,uint256,uint256)": "d8f3e9e6",
          "createRestaurant(string)": "d4b0b116",
          "editBooking(uint256,uint256,string,string,uint256)": "64725ca5",
          "getBookings(uint256)": "f4010995",
          "removeBooking(uint256)": "17c1f549",
          "restaurantCount()": "b11b91e6",
          "restaurants(uint256)": "ad5461d8"
        }
      }
    }
  }
}